:020000000F28C7
:10000800FE00030EF0000408F1000A08F200831253
:100018007F08F3006D291028A001A101A201A30106
:10002800A401A5018301182855218E2104218021CE
:10003800FF30F4000130F500D7208312A401FF300F
:10004800A0000130A100FF30A2000130A300240865
:1000580003192B280130A6002608A507FF30AA009F
:100068000130AB00051866283C2175088312A900E9
:100078007408A8002908A7002808A6000310A70CE0
:10008800A60C0310A70CA60CFF302605A80001300B
:100098002705A900851C55282808FF3EAA0029081D
:1000A80060282809A6002909A700A60A0319A70A93
:1000B8002608FF3EAA0027080318013E013EAB00B0
:1000C8000330672815302502031C75280310871C88
:1000D8000314031C72288312871474288312871050
:1000E800A5012B082302031D7B282A0822020318D6
:1000F800992822080F3EA60023080318013E003E57
:10010800A7002B082702031D8B282A08260203189C
:10011800902822080F3E92282208013EA0002308BA
:100128000318013E003EA100CB2823082B06031D1F
:100138009F2822082A06031DA5282B08A1002A08A3
:10014800CA282308F5002208F4000F30F600003012
:10015800F7002121750883122B02031DB5287408A6
:100168002A020318BD282308F5002208F4000F30DE
:10017800C2282308F5002208F4000130F6000030F8
:10018800F700212175088312A1007408A000210836
:10019800F5002008F400D72083122108A3002008C6
:1001A800A200A4012B2803307502F0300319740251
:1001B800031CE228EF30F4000330F500003075022C
:1001C8001030031974020318ED281030F4000030C1
:1001D800F50074080339F600F60E83121508760642
:1001E800CF39760695007508F7007408F6000310F5
:1001F800F70CF60C0310F70CF60C760893000800C1
:100208008312151395171508F0390C38950012113B
:10021800FC309205FF308316920083129617160859
:100228008039013896008F309705F3309705170805
:10023800FC39013897001215080075087702031D6C
:10024800272974087602031839297609F8007709EE
:10025800F900F80A0319F90A74087807F400750810
:100268000318750A7907F5000800F401F50108007C
:1002780083129F149F183E29FF3083161E05F6002F
:10028800033083121E05F7007608F8007708F90096
:100298000D30F600F60B4E297908F5007808F400C1
:1002A800080083169101073083129900831685018F
:1002B800831285018316870183128701831611161D
:1002C80007148712071285140514871083128710E4
:1002D80008000C1C75292408031D7429A401A40A0C
:1002E8000C107308FF0072088A0071088400700EF1
:1002F8008300FE0E7E0E090083120C1083160C1468
:100308000B178B1783121008CF39203890009010E4
:100318001014080083161F088F3960389F00831255
:0E0328001F08E33910389F009F171F140800AC
:02400E00F2F3CB
:00000001FF
